{
  "_format": "hh-sol-artifact-1",
  "contractName": "Chai",
  "sourceName": "contracts/Chai.sol",
  "abi": [
    {
      "inputs": [],
      "stateMutability": "nonpayable",
      "type": "constructor"
    },
    {
      "inputs": [
        {
          "internalType": "string",
          "name": "name",
          "type": "string"
        },
        {
          "internalType": "string",
          "name": "message",
          "type": "string"
        }
      ],
      "name": "buychai",
      "outputs": [],
      "stateMutability": "payable",
      "type": "function"
    },
    {
      "inputs": [],
      "name": "getMemo",
      "outputs": [
        {
          "components": [
            {
              "internalType": "string",
              "name": "name",
              "type": "string"
            },
            {
              "internalType": "string",
              "name": "message",
              "type": "string"
            },
            {
              "internalType": "uint256",
              "name": "timestamp",
              "type": "uint256"
            },
            {
              "internalType": "address",
              "name": "from",
              "type": "address"
            }
          ],
          "internalType": "struct Chai.chai[]",
          "name": "",
          "type": "tuple[]"
        }
      ],
      "stateMutability": "view",
      "type": "function"
    }
  ],
  "bytecode": "0x608060405234801561001057600080fd5b5033600160006101000a81548173ffffffffffffffffffffffffffffffffffffffff021916908373ffffffffffffffffffffffffffffffffffffffff160217905550610ac0806100616000396000f3fe6080604052600436106100295760003560e01c80638aa7b4b11461002e57806397aeeef714610059575b600080fd5b34801561003a57600080fd5b50610043610075565b60405161005091906105c9565b60405180910390f35b610073600480360381019061006e9190610734565b610258565b005b60606000805480602002602001604051908101604052809291908181526020016000905b8282101561024f57838290600052602060002090600402016040518060800160405290816000820180546100cc906107db565b80601f01602080910402602001604051908101604052809291908181526020018280546100f8906107db565b80156101455780601f1061011a57610100808354040283529160200191610145565b820191906000526020600020905b81548152906001019060200180831161012857829003601f168201915b5050505050815260200160018201805461015e906107db565b80601f016020809104026020016040519081016040528092919081815260200182805461018a906107db565b80156101d75780601f106101ac576101008083540402835291602001916101d7565b820191906000526020600020905b8154815290600101906020018083116101ba57829003601f168201915b50505050508152602001600282015481526020016003820160009054906101000a900473ffffffffffffffffffffffffffffffffffffffff1673ffffffffffffffffffffffffffffffffffffffff1673ffffffffffffffffffffffffffffffffffffffff168152505081526020019060010190610099565b50505050905090565b6000341161026557600080fd5b600160009054906101000a900473ffffffffffffffffffffffffffffffffffffffff1673ffffffffffffffffffffffffffffffffffffffff166108fc349081150290604051600060405180830381858888f193505050501580156102cd573d6000803e3d6000fd5b50600060405180608001604052808481526020018381526020014281526020013373ffffffffffffffffffffffffffffffffffffffff168152509080600181540180825580915050600190039060005260206000209060040201600090919091909150600082015181600001908161034591906109b8565b50602082015181600101908161035b91906109b8565b506040820151816002015560608201518160030160006101000a81548173ffffffffffffffffffffffffffffffffffffffff021916908373ffffffffffffffffffffffffffffffffffffffff16021790555050505050565b600081519050919050565b600082825260208201905092915050565b6000819050602082019050919050565b600081519050919050565b600082825260208201905092915050565b60005b838110156104195780820151818401526020810190506103fe565b60008484015250505050565b6000601f19601f8301169050919050565b6000610441826103df565b61044b81856103ea565b935061045b8185602086016103fb565b61046481610425565b840191505092915050565b6000819050919050565b6104828161046f565b82525050565b600073ffffffffffffffffffffffffffffffffffffffff82169050919050565b60006104b382610488565b9050919050565b6104c3816104a8565b82525050565b600060808301600083015184820360008601526104e68282610436565b915050602083015184820360208601526105008282610436565b91505060408301516105156040860182610479565b50606083015161052860608601826104ba565b508091505092915050565b600061053f83836104c9565b905092915050565b6000602082019050919050565b600061055f826103b3565b61056981856103be565b93508360208202850161057b856103cf565b8060005b858110156105b757848403895281516105988582610533565b94506105a383610547565b925060208a0199505060018101905061057f565b50829750879550505050505092915050565b600060208201905081810360008301526105e38184610554565b905092915050565b6000604051905090565b600080fd5b600080fd5b600080fd5b600080fd5b7f4e487b7100000000000000000000000000000000000000000000000000000000600052604160045260246000fd5b61064182610425565b810181811067ffffffffffffffff821117156106605761065f610609565b5b80604052505050565b60006106736105eb565b905061067f8282610638565b919050565b600067ffffffffffffffff82111561069f5761069e610609565b5b6106a882610425565b9050602081019050919050565b82818337600083830152505050565b60006106d76106d284610684565b610669565b9050828152602081018484840111156106f3576106f2610604565b5b6106fe8482856106b5565b509392505050565b600082601f83011261071b5761071a6105ff565b5b813561072b8482602086016106c4565b91505092915050565b6000806040838503121561074b5761074a6105f5565b5b600083013567ffffffffffffffff811115610769576107686105fa565b5b61077585828601610706565b925050602083013567ffffffffffffffff811115610796576107956105fa565b5b6107a285828601610706565b9150509250929050565b7f4e487b7100000000000000000000000000000000000000000000000000000000600052602260045260246000fd5b600060028204905060018216806107f357607f821691505b602082108103610806576108056107ac565b5b50919050565b60008190508160005260206000209050919050565b60006020601f8301049050919050565b600082821b905092915050565b60006008830261086e7fffffffffffffffffffffffffffffffffffffffffffffffffffffffffffffffff82610831565b6108788683610831565b95508019841693508086168417925050509392505050565b6000819050919050565b60006108b56108b06108ab8461046f565b610890565b61046f565b9050919050565b6000819050919050565b6108cf8361089a565b6108e36108db826108bc565b84845461083e565b825550505050565b600090565b6108f86108eb565b6109038184846108c6565b505050565b5b818110156109275761091c6000826108f0565b600181019050610909565b5050565b601f82111561096c5761093d8161080c565b61094684610821565b81016020851015610955578190505b61096961096185610821565b830182610908565b50505b505050565b600082821c905092915050565b600061098f60001984600802610971565b1980831691505092915050565b60006109a8838361097e565b9150826002028217905092915050565b6109c1826103df565b67ffffffffffffffff8111156109da576109d9610609565b5b6109e482546107db565b6109ef82828561092b565b600060209050601f831160018114610a225760008415610a10578287015190505b610a1a858261099c565b865550610a82565b601f198416610a308661080c565b60005b82811015610a5857848901518255600182019150602085019450602081019050610a33565b86831015610a755784890151610a71601f89168261097e565b8355505b6001600288020188555050505b50505050505056fea26469706673582212201017f7421c9e7186b8053c6124dfd64553a4abc368b9dc2cc296e5b503dd9c2c64736f6c63430008120033",
  "linkReferences": {},
  "deployedLinkReferences": {}
}